{
  "contractName": "Exchange",
  "abi": [
    {
      "inputs": [],
      "name": "greeting",
      "outputs": [
        {
          "internalType": "string",
          "name": "",
          "type": "string"
        }
      ],
      "stateMutability": "view",
      "type": "function",
      "constant": true
    },
    {
      "inputs": [],
      "name": "speak",
      "outputs": [
        {
          "internalType": "string",
          "name": "",
          "type": "string"
        }
      ],
      "stateMutability": "pure",
      "type": "function",
      "constant": true
    },
    {
      "inputs": [
        {
          "internalType": "address payable",
          "name": "recipient",
          "type": "address"
        }
      ],
      "name": "pay",
      "outputs": [
        {
          "internalType": "string",
          "name": "",
          "type": "string"
        }
      ],
      "stateMutability": "payable",
      "type": "function",
      "payable": true
    },
    {
      "inputs": [
        {
          "internalType": "address payable",
          "name": "recipient",
          "type": "address"
        }
      ],
      "name": "pay2",
      "outputs": [
        {
          "internalType": "uint256",
          "name": "",
          "type": "uint256"
        }
      ],
      "stateMutability": "payable",
      "type": "function",
      "payable": true
    },
    {
      "inputs": [],
      "name": "acceptEth",
      "outputs": [],
      "stateMutability": "payable",
      "type": "function",
      "payable": true
    }
  ],
  "bytecode": "0x60806040526040518060400160405280600b81526020017f48656c6c6f20576f726c640000000000000000000000000000000000000000008152506000908051906020019061004f929190610062565b5034801561005c57600080fd5b50610166565b82805461006e90610134565b90600052602060002090601f01602090048101928261009057600085556100d7565b82601f106100a957805160ff19168380011785556100d7565b828001600101855582156100d7579182015b828111156100d65782518255916020019190600101906100bb565b5b5090506100e491906100e8565b5090565b5b808211156101015760008160009055506001016100e9565b5090565b7f4e487b7100000000000000000000000000000000000000000000000000000000600052602260045260246000fd5b6000600282049050600182168061014c57607f821691505b602082108114156101605761015f610105565b5b50919050565b6104d4806101756000396000f3fe60806040526004361061004a5760003560e01c806309fadd711461004f5780630c11dedd1461007f57806350d85315146100af57806382af4b1f146100da578063ef690cc0146100e4575b600080fd5b61006960048036038101906100649190610321565b61010f565b6040516100769190610367565b60405180910390f35b61009960048036038101906100949190610321565b610165565b6040516100a6919061041b565b60405180910390f35b3480156100bb57600080fd5b506100c46101f1565b6040516100d1919061041b565b60405180910390f35b6100e261022e565b005b3480156100f057600080fd5b506100f9610230565b604051610106919061041b565b60405180910390f35b6000803490508273ffffffffffffffffffffffffffffffffffffffff166108fc829081150290604051600060405180830381858888f1935050505015801561015b573d6000803e3d6000fd5b5034915050919050565b606060003490508273ffffffffffffffffffffffffffffffffffffffff166108fc829081150290604051600060405180830381858888f193505050501580156101b2573d6000803e3d6000fd5b506040518060400160405280600481526020017f73656e7400000000000000000000000000000000000000000000000000000000815250915050919050565b60606040518060400160405280600d81526020017f4920486176652053706f6b656e00000000000000000000000000000000000000815250905090565b565b6000805461023d9061046c565b80601f01602080910402602001604051908101604052809291908181526020018280546102699061046c565b80156102b65780601f1061028b576101008083540402835291602001916102b6565b820191906000526020600020905b81548152906001019060200180831161029957829003601f168201915b505050505081565b600080fd5b600073ffffffffffffffffffffffffffffffffffffffff82169050919050565b60006102ee826102c3565b9050919050565b6102fe816102e3565b811461030957600080fd5b50565b60008135905061031b816102f5565b92915050565b600060208284031215610337576103366102be565b5b60006103458482850161030c565b91505092915050565b6000819050919050565b6103618161034e565b82525050565b600060208201905061037c6000830184610358565b92915050565b600081519050919050565b600082825260208201905092915050565b60005b838110156103bc5780820151818401526020810190506103a1565b838111156103cb576000848401525b50505050565b6000601f19601f8301169050919050565b60006103ed82610382565b6103f7818561038d565b935061040781856020860161039e565b610410816103d1565b840191505092915050565b6000602082019050818103600083015261043581846103e2565b905092915050565b7f4e487b7100000000000000000000000000000000000000000000000000000000600052602260045260246000fd5b6000600282049050600182168061048457607f821691505b602082108114156104985761049761043d565b5b5091905056fea2646970667358221220d475ea8bcdb07624a7661b646e42bc546fb00d6b85618d4bdc8549c43b01b15964736f6c634300080b0033",
  "immutableReferences": {},
  "source": "// SPDX-License-Identifier: MIT\r\npragma solidity ^0.8.11;\r\n\r\ncontract Exchange {\r\n    \r\n    // test variable\r\n    string public greeting = 'Hello World';\r\n\r\n    // test function\r\n    function speak() public pure returns (string memory) {\r\n        return 'I Have Spoken';\r\n    }\r\n\r\n    function pay(address payable recipient) public payable returns (string memory) {\r\n        uint amount = msg.value;\r\n        recipient.transfer(amount);\r\n        return \"sent\";\r\n    }\r\n\r\n\r\n    function pay2(address payable recipient) public payable returns (uint) {\r\n        uint amount = msg.value;\r\n        recipient.transfer(amount);\r\n        return msg.value;\r\n    }\r\n\r\n    function acceptEth() public payable {\r\n        \r\n    }\r\n    \r\n}",
  "sourcePath": "C:\\Users\\Toby Martiny\\Desktop\\ReactSolidity_HelloWorld_A3\\blockchain\\contracts\\Exchange.sol",
  "compiler": {
    "name": "solc",
    "version": "0.8.11+commit.d7f03943.Emscripten.clang"
  },
  "schemaVersion": "3.4.7",
  "updatedAt": "2022-06-29T03:19:59.186Z",
  "networkType": "ethereum",
  "devdoc": {
    "kind": "dev",
    "methods": {},
    "version": 1
  },
  "userdoc": {
    "kind": "user",
    "methods": {},
    "version": 1
  }
}