{
  "contractName": "HelloWorld",
  "abi": [
    {
      "inputs": [],
      "name": "greeting",
      "outputs": [
        {
          "internalType": "string",
          "name": "",
          "type": "string"
        }
      ],
      "stateMutability": "view",
      "type": "function",
      "constant": true
    },
    {
      "inputs": [],
      "name": "hi",
      "outputs": [
        {
          "internalType": "uint256",
          "name": "",
          "type": "uint256"
        }
      ],
      "stateMutability": "view",
      "type": "function",
      "constant": true
    },
    {
      "inputs": [],
      "name": "speak",
      "outputs": [
        {
          "internalType": "string",
          "name": "",
          "type": "string"
        }
      ],
      "stateMutability": "pure",
      "type": "function",
      "constant": true
    },
    {
      "inputs": [],
      "name": "number",
      "outputs": [
        {
          "internalType": "uint256",
          "name": "",
          "type": "uint256"
        }
      ],
      "stateMutability": "view",
      "type": "function",
      "constant": true
    }
  ],
  "bytecode": "0x60806040526040518060400160405280600b81526020017f48656c6c6f20576f726c640000000000000000000000000000000000000000008152506000908051906020019061004f929190610067565b50600560015534801561006157600080fd5b5061016b565b82805461007390610139565b90600052602060002090601f01602090048101928261009557600085556100dc565b82601f106100ae57805160ff19168380011785556100dc565b828001600101855582156100dc579182015b828111156100db5782518255916020019190600101906100c0565b5b5090506100e991906100ed565b5090565b5b808211156101065760008160009055506001016100ee565b5090565b7f4e487b7100000000000000000000000000000000000000000000000000000000600052602260045260246000fd5b6000600282049050600182168061015157607f821691505b602082108114156101655761016461010a565b5b50919050565b61032a8061017a6000396000f3fe608060405234801561001057600080fd5b506004361061004c5760003560e01c806350d85315146100515780638381f58a1461006f578063a99dca3f1461008d578063ef690cc0146100ab575b600080fd5b6100596100c9565b604051610066919061023d565b60405180910390f35b610077610106565b6040516100849190610278565b60405180910390f35b610095610110565b6040516100a29190610278565b60405180910390f35b6100b3610116565b6040516100c0919061023d565b60405180910390f35b60606040518060400160405280600d81526020017f4920486176652053706f6b656e00000000000000000000000000000000000000815250905090565b6000600154905090565b60015481565b60008054610123906102c2565b80601f016020809104026020016040519081016040528092919081815260200182805461014f906102c2565b801561019c5780601f106101715761010080835404028352916020019161019c565b820191906000526020600020905b81548152906001019060200180831161017f57829003601f168201915b505050505081565b600081519050919050565b600082825260208201905092915050565b60005b838110156101de5780820151818401526020810190506101c3565b838111156101ed576000848401525b50505050565b6000601f19601f8301169050919050565b600061020f826101a4565b61021981856101af565b93506102298185602086016101c0565b610232816101f3565b840191505092915050565b600060208201905081810360008301526102578184610204565b905092915050565b6000819050919050565b6102728161025f565b82525050565b600060208201905061028d6000830184610269565b92915050565b7f4e487b7100000000000000000000000000000000000000000000000000000000600052602260045260246000fd5b600060028204905060018216806102da57607f821691505b602082108114156102ee576102ed610293565b5b5091905056fea2646970667358221220069a79234531e85e2e43563ecf693ae408f170043dff7bff021228c4a75e765964736f6c634300080b0033",
  "immutableReferences": {},
  "source": "// SPDX-License-Identifier: MIT\r\npragma solidity ^0.8.11;\r\n\r\n\r\ncontract HelloWorld {\r\n    \r\n    string public greeting = 'Hello World';\r\n    uint public hi = 5;\r\n\r\n    function speak() public pure returns (string memory) {\r\n        return 'I Have Spoken';\r\n    }\r\n\r\n    function number() public view returns (uint) {\r\n        return hi;\r\n    }\r\n    \r\n}",
  "sourcePath": "C:\\Users\\Toby Martiny\\Desktop\\ReactSolidity_HelloWorld_A3\\blockchain\\contracts\\HelloWorld.sol",
  "compiler": {
    "name": "solc",
    "version": "0.8.11+commit.d7f03943.Emscripten.clang"
  },
  "schemaVersion": "3.4.7",
  "updatedAt": "2022-06-29T03:19:01.567Z",
  "networkType": "ethereum",
  "devdoc": {
    "kind": "dev",
    "methods": {},
    "version": 1
  },
  "userdoc": {
    "kind": "user",
    "methods": {},
    "version": 1
  }
}